:100000000C9435000C945D000C945D000C945D0024
:100010000C945D000C945D000C945D000C945D00EC
:100020000C945D000C945D000C945D000C945D00DC
:100030000C945D000C945D000C945D000C945D00CC
:100040000C948D050C945D000C945D000C945D0087
:100050000C945D000C945D000C945D000C945D00AC
:100060000C945D000C945D00BB0611241FBECFEF05
:10007000D8E0DEBFCDBF11E0A0E0B1E0EEE8FEE0E9
:1000800002C005900D92AE32B107D9F721E0AEE281
:10009000B1E001C01D92A637B207E1F710E0C5E359
:1000A000D0E004C02197FE010E943A07C433D10773
:1000B000C9F70E94D7050C9445070C9400003FB780
:1000C000F8948091550190915601A0915701B091FB
:1000D000580126B5A89B05C02F3F19F00196A11D18
:1000E000B11D3FBFBA2FA92F982F8827BC01CD0182
:1000F000620F711D811D911D42E0660F771F881FE1
:10010000991F4A95D1F708952F923F924F925F928F
:100110006F927F928F929F92AF92BF92CF92DF9217
:10012000EF92FF920F931F93CF93DF93CDB7DEB77C
:10013000C358D1090FB6F894DEBF0FBECDBF782EDD
:100140008091660190916701A0916801B091690169
:10015000892B8A2B8B2BD9F00E945F0000917201B2
:10016000109173012091740130917501601B710B26
:10017000820B930B00916601109167012091680139
:10018000309169016017710782079307C8F20E94D6
:100190005F00609372017093730180937401909378
:1001A0007501E0916E01F0916F01309759F0409127
:1001B0006A0150916B0160916C0170916D01872D06
:1001C0000995782EFE01319680E8DF011D928A950F
:1001D000E9F7E0907001F09071016F015E01B1E804
:1001E000AB0EB11C4F01472C512CE114F10409F462
:1001F0005CC08A149B0409F458C0D701ED91FC91AE
:100200000484F585E02DC7010995F401819391934C
:100210004F0180916401909165018436910518F435
:10022000D7011C961C92D701ED91FC91228033805E
:10023000F501108211821282772019F187010A5F7D
:100240001F4FF0E0E0E0D8012D918D012223A9F0AD
:1002500012966C90662089F030E02F5F3F4FD201FC
:100260000E9405079B01AC01A62DB0E011960E94EB
:100270001B07D501AE0FBF1F8C933196E330F105FC
:1002800011F7F501008111812281D7011D964D9151
:100290005C911E9712966D917C91C701F1010995B1
:1002A000D7011496ED90FC90A0CF009170011091B1
:1002B00071010115110599F0CA14DB0481F0F601F2
:1002C000619171916F01D801ED91FC910684F785E0
:1002D000E02DC8010995F80104811581EACF8091CC
:1002E0006101909162019C012F5F3F4F3093620149
:1002F0002093610149970CF44AC08FB7F89420917C
:10030000590130915A0140915B0150915C018FBFBE
:1003100080915D0190915E01A0915F01B0916001BB
:10032000281B390B4A0B5B0B21F421E030E040E045
:1003300050E0E0916101F091620188EE93E0E89F66
:10034000B001E99F700DF89F700D1124072E000C6D
:10035000880B990B0E94E30630936501209364019A
:1003600010926201109261012FB7F89480915901A7
:1003700090915A01A0915B01B0915C012FBF8093D5
:100380005D0190935E01A0935F01B0936001CD5732
:10039000DF4F0FB6F894DEBF0FBECDBFDF91CF9118
:1003A0001F910F91FF90EF90DF90CF90BF90AF9093
:1003B0009F908F907F906F905F904F903F902F9085
:1003C00008958F929F92AF92BF92CF92DF92EF9259
:1003D000FF920E945F004B015C0184EFC82EDD2478
:1003E000D394E12CF12C0E945F00681979098A09E5
:1003F0009B09683E734081059105A8F321E0C21A6C
:10040000D108E108F10888EE880E83E0981EA11C4F
:10041000B11CC114D104E104F10429F7FF90EF905D
:10042000DF90CF90BF90AF909F908F90089580E91C
:1004300091E008950F931F93CF93DF9320912F01A5
:100440002F5F322F377030932F0120FF2BC020E811
:1004500031FD2064347009F02062205FFC01EC0162
:10046000239600E011E06485662329F070E0C8015E
:100470000E94CF066F5F6187822F869F080E80E003
:10048000811D1124811110C01682662311F0615064
:1004900061873196EC17FD0731F7DF91CF911F91FE
:1004A0000F91089520E0D4CF81508683EECF4F92F4
:1004B0005F927F928F929F92AF92BF92CF92DF9284
:1004C000EF92FF920F931F93CF93DF932C01EB01D9
:1004D0000E945F00F20125893689621B730B6A3026
:1004E0007105B0F3F8948A819B81181619060CF0F7
:1004F000CDC1E881F9816BB1862E689483F83BB158
:10050000377F3BB9DA848F812D2D281B822F2F83D3
:100510004F85042E000C550BAA81BB817D85FC8480
:10052000EE847F5FF394E3949E819884B984AB84D6
:100530001181C12C6C2D0C2D2C2D2181112788941B
:100540002111280F08F42FEF8195889470FD120F68
:100550001795889471FD120F1795889472FD120FEC
:100560001795889473FD120F1795889474FD120FD8
:100570001795889475FD120F1795889476FD120FC4
:100580001795889477FD120F17958894622F711133
:10059000612F8D0D162F002C8BB800C017FF3BB9B3
:1005A00020816627889400C000C0002C3BB921112F
:1005B000290F00C0002C8BB800C016FF3BB908F40F
:1005C0002FEF9195889400C000C0002C3BB9F0FC3F
:1005D000620F00C0002C8BB800C015FF3BB96795B7
:1005E0008894F1FC620F00C000C0002C3BB96795F5
:1005F000889400C0002C8BB800C014FF3BB9F2FCFB
:10060000620F6795889400C000C0002C3BB9F3FCD2
:10061000620F00C0002C8BB800C013FF3BB9679578
:100620008894F4FC620F00C000C0002C3BB96795B1
:10063000889400C0002C8BB800C012FF3BB9F5FCB9
:10064000620F6795889400C000C0002C3BB9F6FC8F
:10065000620F00C0002C8BB800C011FF3BB967953A
:100660008894F7FC620F00C000C0002C3BB967956E
:10067000889400C0002C8BB800C010FF3BB9122F2B
:10068000F110162F9B0D00C000C0002C3BB900C01C
:1006900000C0002C8BB800C017FF3BB92281662731
:1006A000889400C000C0002C3BB92111290D00C066
:1006B000002C8BB800C016FF3BB908F42FEFE40FF5
:1006C000F51F00C000C0002C3BB9E0FC620F00C069
:1006D000002C8BB800C015FF3BB967958894E1FCEE
:1006E000620F00C000C0002C3BB96795889400C021
:1006F000002C8BB800C014FF3BB9E2FC620F679579
:10070000889400C000C0002C3BB9E3FC620F00C01D
:10071000002C8BB800C013FF3BB967958894E4FCAC
:10072000620F00C000C0002C3BB96795889400C0E0
:10073000002C8BB800C012FF3BB9E5FC620F679537
:10074000889400C000C0002C3BB9E6FC620F00C0DA
:10075000002C8BB800C011FF3BB967958894E7FC6B
:10076000620F00C000C0002C3BB96795889400C0A0
:10077000002C8BB800C010FF3BB9122FE110162FD0
:10078000919400C000C0002C3BB99A0C00C000C07E
:100790008BB800C017FF3BB921816627889400C041
:1007A00000C0002C3BB92111280F00C0002C8BB8D1
:1007B00000C016FF3BB908F42FEF8195889400C064
:1007C00000C0002C3BB970FD620F00C0002C8BB83C
:1007D00000C015FF3BB96795889471FD620F00C09A
:1007E00000C0002C3BB96795889400C0002C8BB8E2
:1007F00000C014FF3BB972FD620F6795889400C07A
:1008000000C0002C3BB973FD620F00C0002C8BB8F8
:1008100000C013FF3BB96795889474FD620F00C058
:1008200000C0002C3BB96795889400C0002C8BB8A1
:1008300000C012FF3BB975FD620F6795889400C038
:1008400000C0002C3BB976FD620F00C0002C8BB8B5
:1008500000C011FF3BB96795889477FD620F00C017
:1008600000C0002C3BB96795889400C0002C8BB861
:1008700000C010FF3BB9122F7111162F8D0D00C053
:1008800000C0002C3BB9119709F086CE4A815B81EC
:1008900020EE31E0DA010E941407DC01CB01F4E024
:1008A000B695A79597958795FA95D1F730E020E012
:1008B000B901EAE94E9F040E611D5E9F600D711D36
:1008C0001124650F711D860F971FA11DB11D893E53
:1008D00043E09407A105B10508F434C0885E934055
:1008E000A109B10942E0B695A795979587954A95D4
:1008F000D1F747E0849F080E211D949F200D311DE4
:100900001124290F311D60912E0170E0860F971F71
:10091000820F931F4091590150915A0160915B01E0
:1009200070915C01292F3327420F531F611D711DE8
:100930004093590150935A0160935B0170935C019D
:1009400080932E0178940E945F00F201768B658B74
:10095000DF91CF911F910F91FF90EF90DF90CF909B
:10096000BF90AF909F908F907F905F904F90089531
:1009700081E090E00895539A08956F927F928F924C
:10098000CF92DF92EF92FF920F931F93CF93DF935B
:10099000CDB7DEB762970FB6F894DEBF0FBECDBFFE
:1009A0006C017A013801822EDC011C962C91CA015F
:1009B00057FF04C088279927841B950B7A83698386
:1009C0009C838B839E838D836D867E868F8621306C
:1009D00049F5CE0101960E941A0283E0888B1A8A9B
:1009E000198AF7FE02C08DEF888BD601ED91FC913C
:1009F0000288F389E02DBE016F5F7F4FC601099524
:100A000062960FB6F894DEBF0FBECDBFDF91CF91D7
:100A10001F910F91FF90EF90DF90CF908F907F907C
:100A20006F9008951C861B861A86198618861F8269
:100A3000D4CFEF92FF920F931F93CF93DF93CDB755
:100A4000DEB762970FB6F894DEBF0FBECDBF7C0154
:100A5000DC011C968C917A8369835C834B835E8373
:100A60004D830D871E872F878130F9F4CE010196C3
:100A70000E941A02188A1A8A198AD701ED91FC91EC
:100A80000288F389E02DBE016F5F7F4FC701099592
:100A900062960FB6F894DEBF0FBECDBFDF91CF9147
:100AA0001F910F91FF90EF9008951C861B861A8668
:100AB000198618861F82DECF90E080E00895FC0141
:100AC00064870895FC01848590E00895FC01858584
:100AD000968508950F931F93CF93DF9300D01F92B5
:100AE000CDB7DEB7AB0119821A821B82DC01ED9112
:100AF000FC910190F081E02D00E010E020E0BE01CB
:100B00006F5F7F4F09950F900F900F90DF91CF91FE
:100B10001F910F9108950E9440071F920F920FB6E8
:100B20000F9211242F933F938F939F93AF93BF9373
:100B30008091590190915A01A0915B01B0915C01A3
:100B40003091540123E0230F2D3758F50196A11D54
:100B5000B11D209354018093590190935A01A093A1
:100B60005B01B0935C018091550190915601A09179
:100B70005701B09158010196A11DB11D80935501F7
:100B800090935601A0935701B0935801BF91AF9134
:100B90009F918F913F912F910F900FBE0F901F90BB
:100BA000189526E8230F0296A11DB11DD2CF789487
:100BB00084B5826084BD84B5816084BD85B5826062
:100BC00085BD85B5816085BD80916E008160809313
:100BD0006E0010928100809181008260809381007C
:100BE000809181008160809381008091800081608C
:100BF000809380008091B10084608093B1008091E7
:100C0000B00081608093B00080917A00846080930E
:100C10007A0080917A00826080937A0080917A00D5
:100C2000816080937A0080917A00806880937A0056
:100C30001092C10080914901811155C01092350177
:100C4000109234018FEF80933801809339018093A3
:100C50003A0180933B0180933C0180933D0181E008
:100C600080933E011092400110923F0180E797E18E
:100C7000909342018093410183E090E0909344017E
:100C80008093430110924601109245011092370162
:100C9000109236018091700190917101892B31F48D
:100CA00082E391E09093710180937001E0913001B3
:100CB000F0913101309721F082E391E095838483B4
:100CC00082E391E0909331018093300110924801CA
:100CD000109247018AE191E09093330180933201B1
:100CE00081E080934901539A81E591E09093350129
:100CF0008093340181E090E09093400180933F0124
:100D00008091660190916701A0916801B09169019D
:100D1000843C29E09207A105B10520F484EC99E018
:100D2000A0E0B0E08093660190936701A093680112
:100D3000B0936901CFEF00E010E0C0935101109231
:100D4000520110925301809163010E9484000E941D
:100D5000E1011092510110925201109253018091C1
:100D600063010E9484000E94E1010115110529F32D
:100D70000E940000E2CFE3E6F1E08FEF8083128271
:100D80001182148613868FEF9FEFDC018783908793
:100D9000A187B2871382148215821682089597FB69
:100DA000072E16F4009407D077FD09D00E9426077D
:100DB00007FC05D03EF4909581959F4F089570955E
:100DC00061957F4F0895A1E21A2EAA1BBB1BFD015E
:100DD0000DC0AA1FBB1FEE1FFF1FA217B307E4071A
:100DE000F50720F0A21BB30BE40BF50B661F771F72
:100DF000881F991F1A9469F7609570958095909552
:100E00009B01AC01BD01CF010895A29FB001B39F2A
:100E1000C001A39F700D811D1124911DB29F700D03
:100E2000811D1124911D08950E940507B7FF0895A3
:100E3000821B930B08950E940507A59F900DB49FF8
:100E4000900DA49F800D911D11240895AA1BBB1B1A
:100E500051E107C0AA1FBB1FA617B70710F0A61BBA
:100E6000B70B881F991F5A95A9F780959095BC01DB
:100E7000CD010895EE0FFF1F0590F491E02D099428
:0E0E800081E090E0F8940C944507F894FFCFC1
:100E8E00000000008B058B058B056A056605B8040E
:100E9E0062055F055C05000000001905BD04BB047A
:0E0EAE006A056605B80462055F051702570263
:00000001FF
